:020000040000FA
:10000000000002288830AE000130AF0080300000D0
:10001000000040210000000083120000C1002F08F2
:10002000C0008A30C2000130C300831200004008C3
:10003000C4004108C500FF30C007031CC1034508C8
:10004000440403199A2804304207C400C501C50DB1
:100050004308C5074408AE004508AF0080300000E3
:10006000000040210000000083120000C7002F089C
:10007000C6004208AE004308AF0080300000000018
:1000800040210000000083120000C900C5002F08B5
:10009000C400C80002304207C400C501C50D4308B2
:1000A000C5074408AE004508AF00803000000000DE
:1000B00040210000000083120000C500CB002F0883
:1000C000CA00C400831200004608CA004708CB00DB
:1000D000FF30C607031CC7034B084A0403199328C3
:1000E0004808AE004908AF008030000000002D2114
:1000F0000000000083120000CA00440883120313AA
:100100008400831383120000451883174A08831262
:100110000313800083120000C80A0319C90AC40A25
:100120000319C50A6228063083120000C2070318AB
:10013000C30A1528000000009E2808000830831616
:100140008500831285010130B000B1010310B11B9D
:100150000314310CB300300CB2003006B400330885
:100160003106B5000130B405B5010310340DB600F9
:10017000350DB7000310B60DB70D36083204B000C8
:1001800037083304B1008312851DA6283008013AD0
:10019000031DD6283108003A031DD62802308500F9
:1001A000E830AF0003306121831285013008023A44
:1001B000031DE7283108003A031DE72804308312A5
:1001C0008500E830AF0003306121831285013008DB
:1001D000033A031DF8283108003A031DF8280630B9
:1001E00083128500E830AF0003306121831285015E
:1001F0003008043A031D09293108003A031D092972
:10020000053083128500E830AF000330612183128E
:1002100085013008053A031D1A293108003A031DEB
:100220001A29073083128500E830AF0003306121BE
:10023000831285013008063A031DA6283108003ACA
:10024000031DA628153083128500E830AF00033067
:10025000612183128501A6280800003A0319342978
:10026000803A03193B2900342E08840083132F1889
:100270008317000808002F088A002E088200080053
:10028000003A03194829803A03195229AF01003472
:100290002E08840083132F1883170008AF00840AE8
:1002A00000080800000000003B21AD00AE0FAF03C6
:1002B000AF0A000000003B21AC002D08AF002C0865
:1002C0000800B9002F08B800BA01BB0139083B0289
:1002D000031D6C2938083A0203188729FB30BC003B
:1002E0000430BD00FF303C07BE00FF30BF003D08BA
:1002F00003183D0FBF073E08BC003F08BD003F0884
:100300003E04031D7229BA0A0319BB0A66290800B4
:1003100001340034903401344C340034013400345E
:020320000034A7
:02400E00D73F9A
:00000001FF
